:0300000002017F7B
:1000030075B28375D90075A4FF75A5FF75A6FF7535
:09001300A7FF75AEFF75E2402263
:10001C0075D4FF75E10475E24075E601D2AF7589C0
:0D002C0020758DFB758BFBD28E75C1812276
:03003B000201E5DA
:10003E00CD30E11520E00FC083C08288828C83CD45
:0C004E00F0D082D08322CDF222CDF62229
:10005A00ED30E11320E00EC083C08288828C83E0F9
:10006A00D082D08322E2226405700EC083C08288C7
:0B007A00828C8393D082D08322E62288
:10008500EB30E11320E00EC083C08289828A83E0D1
:10009500D082D08322E3226405700EC083C082899A
:0B00A500828A8393D082D08322E7225E
:1000B000058105810581EBC0E0EAC0E0E9C0E0ED23
:1000C000C0E0ECC0E0E8C0E074FA2581F81818EB55
:1000D000F608EAF608E9F674F42581F9B70005098F
:1000E000B70001D3404D74FE2581F8E6FB08E6FA1F
:1000F00008E6F9120085603B74FE2581F9E7FD09E9
:10010000E7FC09E7F807E71970010712005AFA74CB
:10011000FB2581F9E7FD09E7FC09E7F807E7197016
:100120000107EA12003E74F52581F9E7171970A757
:100130001780A474F42581F9E7FA09E7171970010B
:1001400017BA0004B40001D3401974FB2581F9E704
:10015000FD09E7FC09E7F807E719700107E4120059
:100160003E80D074F82581F9E7C0E009E7C0E009D6
:0F017000E7F9D0E0FAD0E0FB74F72581F58122A2
:10017F00758136E4787FF6D8FD900276E4937002AD
:10018F00804EC31392D5C31392D1FFA3E493F8B05B
:10019F00D5402130D505E4A393F5A0E420D102A3E7
:1001AF009320D507F608DFF3A380D1F208B800F645
:1001BF0005A080F2E8030303541F2420F9E8540735
:1001CF00F8E4D333B80002800333D8FD47F780D863
:0601DF0075A0FF020257AB
:1001E500C0E0C0D0C000C002C003E5C054F0244048
:0801F500601624E0600280277F
:1001FD00C2C0851CC2C292C2C5E4F51DF51E801792
:10020D00C2C0D29275C296051EE51E7002051D6410
:10021D0014451D7002D2C4D003D002D000D0D0D06E
:02022D00E032BD
:10022F008B338A348935EFC333F51CE4C0E0741483
:10023F00C0E07B017908E4FAAD33AC34A835120085
:08024F00B015811581D2C52212
:0602570012000312001C5E
:10025D0030A00480FB80F97F047B01E4FA791F1242
:09026D00022F20A0EB80FB80F9B8
:10027600501F000102030405060708090A0B0C0DAE
:060286000E0F10115013D1
:01028C000071
:00000001FF
