:030000000201F802
:0300030002108563
:050006007F01020FB1B3
:03000B000210C11F
:10000E00EEC0E0EFC0E088F0E58124FDF8ECC6C05C
:09001E00E008EDC6C0E0A8F022E4
:10002700EB30E11320E00EC083C08289828A83E02F
:10003700D082D08322E3226405700EC083C08289F8
:0B004700828A8393D082D08322E722BC
:040052001176015EC4
:04005600119201649E
:04005A0011AE015E84
:06005E0008B800010C22AD
:0600640009B900010A22A7
:0C006A00E0A3FCE0A3FDE0A3FEE0FF2209
:10007600CD30E11520E00FC083C08288828C83CD0D
:0C008600F0D082D08322CDF222CDF622F1
:10009200CB30E11520E00FC083C08289828A83CBF6
:0C00A200F0D082D08322CBF322CBF722D7
:1000AE00ED30E11320E00EC083C08288828C83E0A5
:1000BE00D082D08322E2226405700EC083C0828873
:0B00CE00828C8393D082D08322E62234
:1000D900C2D1C2D5EE30E707D2D1D2D5120186EC12
:1000E90030E705B2D112018E12010130D10312019C
:1000F9008630D50312018E22BC000EBE0032EF8D70
:10010900F08420D226FFADF0227B0075F008EF2F96
:10011900FFEE33FEEB33FBEE9DEB9C4005FBEE9DC2
:10012900FE0FD5F0E9E4CECDCBCC227EFF7FFF22B6
:10013900EDB410005022EE8DF084FEEF54F045F03E
:10014900C48DF084C4FCEF540FC445F0C48DF08411
:10015900FFADF0E4CC4FFF22EE8DF08420D2CC7EAF
:1001690008CEC5F0CDCBEF2FFFED33FD10D7079BA0
:100179005005D5F0F1229BFD0FD5F0EA22C3E49F8B
:0D018900FFE49EFE22C3E49DFDE49CFC22E9
:10019600E4FEFFEB700122239001A073800880111A
:1001A600801E80028025E7090FBF00010E70F780D0
:1001B6002889828A83E0A30FBF00010E70F7801999
:1001C600E3090FBF00010E70F7800E89828A83E46F
:0F01D60093A30FBF00010E70F61FBFFF011E2283
:1001E500EFB40A077F0D1201E57F0A3099FDC29928
:0301F5008F9922BD
:1001F800758129E4787FF6D8FD9007FCE4937002B6
:10020800804EC31392D5C31392D1FFA3E493F8B0E1
:10021800D5402130D505E4A393F5A0E420D102A36D
:100228009320D507F608DFF3A380D1F208B800F6CB
:1002380005A080F2E8030303541F2420F9E85407BB
:10024800F8E4D333B80002800333D8FD47F780D8E9
:0602580075A0FF02121167
:10025E0012006AEFB2E7FF800312006AE58124FD07
:10026E00F8F9E63308E633700602064B02063A0446
:10027E0060FAEE33EF33700EE6FF18E6FE18E6FD79
:10028E0018E6FC02064B0460E3E58124FBF8D3EC90
:10029E009608ED9608EE9608EFC2E786F0C2F7953F
:1002AE00F0400FEFC6FF18EEC6FE18EDC6FD18ECB7
:1002BE00C6FC12065CC3EB9FF5F0700EE58124FBC5
:1002CE00F9E4C3CC20D5730203999418605C400EF8
:1002DE00E4FF19E7FE19E7FD19E7FC020375E4FFD9
:1002EE0030F405CEFCE4CDFF30F305E4CECDCCCF1B
:1002FE0030F21AE5D054184404F8EF54F0D6C4FF87
:10030E0008ECD6C4FC08EDD6C4FDEEC4FE7403554D
:10031E00F06012F5F0C3EE13FEED13FDEC13FCEFDF
:10032E0013FFD5F0F030D55D8009E4CEFFE4FDFC7F
:10033E0030D552C3E49FCC191919C797CD09C79769
:10034E00CE09C797FF4E4D4C701402064BDB0302CD
:10035E00063EEC2CFCED33FDEE33FEEF33FFEF30BB
:10036E00E7EBECCFCECDFCEF30E70D0CBC00090D6A
:10037E00BD00050EBE00010BEB7005A2D1020632C8
:10038E00A2D1020645E42FCC19191937CD0937CE63
:10039E000937FF50090BEB700CA2D1020632EFCEDB
:1003AE00CDCCFF80C2EF13CE13CD13CC13FF80B78D
:1003BE0012006AEF4E601AE58124FEF924FEF8E77A
:1003CE0019477019EE33EF33B4FF0302063A0206F3
:1003DE003EE58124FDF8E63308E63380EB12065C39
:1003EE00248150082B5008A2D50206322B50DFF77D
:1003FE00FAE61846197020B7800DEE33CAA2D5134F
:10040E00FFCA13FE02064BEC4D703CBE8046E6FC66
:10041E0008E6FD08E680E4EC4D7039BE800280EE01
:10042E00E4CEC7CDC6F5F008E4C6CCF9FBFFFA80E2
:10043E0076E4CEC9E4CDCAE4FFCCFB803CE4C9CD62
:10044E00CFCBECCACC8060E4F9FAFBFFCECDCCC5A5
:10045E00F00880538CF0E660D8A4C5F0CDFAC5F054
:10046E00E6A42DCEF9C5F03400FDE6A42DC5F0347A
:10047E0000FDCCFBC5F0CC7F0008E660C0A42EC505
:10048E00F03C50010DCAFCC5F0CEE6A42AC5F03DE5
:10049E0050010FC9FDC5F0CAE6A429C5F03F790188
:1004AE00400119CBC5F0CF08E6A42AC5F03F500590
:1004BE000BBB000109CCC5F0FAE6A42CC5F03B50ED
:1004CE000109CDC5F0CCE6A42DFDC5F039FE3308EB
:1004DE00500906B60011A2D5020632EA33FAEC3301
:1004EE00FCED33FDEE33FEEA30E7140CBC00100DCC
:1004FE00BD000C0EBE000806B60004A2D580D9E6DB
:05050E00A2D502064524
:10051300D083D08202063E12006AEFC2E74E700318
:1005230002063AC082C083E58124FBF8F9E6084657
:1005330060DE12065C0FBF0006D083D08280E1EF3D
:1005430024805007C3CB9B500D80C5CB9B4007D065
:1005530083D082020632F6F583EC4D701FBE801CF9
:10056300E58124FBF8E583A2D513FFE692E7FE18A5
:10057300E6FD18E6FCD083D08202064BE58124FB1E
:10058300F8E6CEF618E6CDF618E6CCF6EFCCFFE8A3
:100593002402F9F8E7FA19E7FB19E7FCE4F5F0752B
:1005A300821A758380801DE58303F58330E706A7F0
:1005B300F009E4F5F0C3EF33FFED33FDEE33FE4016
:1005C3000C30E717C3EF9CED9BEE9A400EC3EF9CF4
:1005D300FFED9BFDEE9AFEE58342F0D582C9E7FA73
:1005E30019E9F81919E720E7191ABA0003020513E4
:1005F300E5F025F0FFE633FC18E633FD18E633FE9D
:100603008009FE09E7FDE6FCE5F0FFEF30E7160C95
:10061300BC00120DBD000E0EBE000A0A7007D08387
:0F062300D082020632EAA2D5D083D082020645E9
:1006320074FF13FF7E80800774FF8001E4FFFEFDDC
:10064200FC800613FFEE92E7FED0E0F8D0F0E581E1
:1006520024FCF581C0F0E8C0E022E7D2E7C7330905
:10066200E733FB92D592D1EED2E7CE33EF33FF5090
:0406720002B2D522D9
:100676003F8000003DCCCCCD3C23D70A3A83126F95
:1006860038D1B7173727C5AC358637BD33D6BF95B2
:10069600322BCC7724E69595179ABE150A4FB11FD3
:1006A600EB60105407700AEB543803241C1206D171
:1006B6002223231206D1EB543870012203241CFB9B
:1006C60012000EEB1206D11203C122900676FC939D
:0E06D600FF0CEC93FE0CEC93FD0CEC93FC225D
:1006E40012072B8000EC3392D550031207197A209D
:1006F400C3EC20E712EF33FFEE33FEED33FDEC33B2
:10070400FC20E704DAEF220AEA247DA2D513FFECE9
:1007140092E7CEFC22E4C39FFFE49EFEE49DFDE449
:100724009CFC22C2D580C7EED2E7CE33EF3392D5FC
:100734002481400CE4C2D5A2D513FC33FDFEFF2274
:1007440024E0500474FF80EFF404FAE4CCCDCECF5F
:10075400800DC3EF13FFEE13FEED13FDEC13FCDA73
:10076400F120D507EECDFEEFCCFF22E4C39CFCE4E0
:100774009DFDE49EFEE49FCCFFEECDFE22EFC2E79A
:10078400FF80A47A083392D5E4FDFEFF30D503122E
:10079400071AEC334010EF33FFEE33FEED33FDEC7C
:1007A40033FCDAEE80BEEA247EA2D513CC92E7CDE8
:0407B400CEFF80B044
:1007B80075B28375D90075A4FF75A5FF75A6FF7579
:0907C800A7FF75AEFF75E24022A7
:0807D1008E048F05EC4D60164B
:1007D900E4FA7B03EA4B6007EB1B70F81A80F5ED2E
:0707E9001D70E91C80E622EF
:0707F000EF4480FF020FB18E
:0507F7007F02020FB1BA
:0307FC00042405CD
:0107FF0000F9
:10080000EBFDEAFCE9F87BFFD083D0828581F0E440
:10081000C0E0C0E0C0E0AE81C082C08385F08275D8
:10082000F000C2D58009D0E0FDD0E0FCD0E0F812A5
:10083000005AFFC3E8C0E0ECC0E0EDC0E0EF605F4D
:1008400030D5030208BAB4250D74FF3105D3740006
:1008500011FBD2D580D0120EFB80CBFF310F20F7D9
:10086000237009BF0013D2F3888280BAC0F075F0FC
:100870000AA42FD0F020F706FFEF11FB800231050C
:10088000888280A23112B4FFE3EF80F2E4120EFB03
:10089000D33122800DEF24D0B40A0040BE0126BB24
:1008A000FFEAE58124FDF581D082D08324FCF58127
:1008B000D0E0C083C082FF7E0022A882FF900F6636
:1008C000E493601F6FA36006A350F5A380F293FF2B
:1008D000400642F0888280C5A3E4938F83F582C2EC
:1008E000D1E47340B0D3A380D7C2F3D1EA8882D0D9
:1008F000E0FDD0E0FCD0E0F802081FC38008311210
:10090000B4FF027401D3CEC8CE500118F6800BC3D9
:100910008001D3CEC8CE500118E6500108CEC8CE13
:1009200022C3CE1414C8CE065002161608D380EA8D
:10093000E620F70411FB8002310518188882012691
:10094000E9C0E0E8F9E7F819E7FC19E7FD19E9C0A3
:10095000E0E4120052EE24FEF9E7C9D0E0C912002B
:1009600052E9F8D0E0F901EDE6FF1818310F24FF45
:100970004001E4F58320F108EFC0E0D1EAD0E0FFC8
:10098000D1FB01E97F2580E4C2F07406FD310575D5
:1009900082038012D2D1C2F611FE7582027D04302C
:1009A000F4048D827D08E618F583540FC0E0E583DA
:1009B00054F0C4C0E01582E58270EB7582008000BF
:1009C000D0E07006ED60031D80F6C0E03112C39DDB
:1009D000600B4009758300C0830DD5E0F9E5827096
:1009E0000430F0010D310FC330F001D39D5001E40C
:1009F000F58330F302711820F102D1EA7118BD00BD
:100A00000201E9D0E024F6500730D1022420240767
:100A1000243AFFD1FBDDEC01E9C2F6740630F402A2
:100A2000740B30F00104FD7582088D8311FEC0F057
:100A3000F153E6FC08E618CC7F0130F4027F038511
:100A400082F084F6EC54F025F0C48582F084C4CCA6
:100A5000540FC5F0C425F08582F0842C08F6DF0F12
:100A6000D0E0C5F0C0E0EFD583C4F1531821C00831
:100A7000E618FC80D0C2F07D0530F4027D0A758254
:100A80000A80A7E8FDF153E630E717D2D1EDF875FB
:100A9000820230F402758204C3E6CFE49FF618D5D3
:100AA00082F7EDF8A2F572F672D192F080C9E6C035
:100AB000E018E6FC18E6FD18D0E0C8F582EBC0E0CF
:100AC000EAC0E0E9C0E0EDFBECFAE8F9C082EEC074
:100AD000E0120196D0E0FED082D0E0F9D0E0FAD06A
:100AE000E0FB31128F83B583005002F583310FC3D1
:100AF00095835001E4F58320F102D1EAC0833112DD
:100B0000F583E583600C158312005A6005FFD1FB65
:100B100080F0A882D08301E930F028E582B40A1180
:100B20007F2D20D10E7F2B20F5097F2030F61480F9
:100B3000027F30D1FBE582700A7F7820D1027F5896
:100B40001DD1FBC2F022C2F7120CB9C2F4BFFF03E1
:100B50000208E9EF2481FF20E7420FE583C39F608D
:100B600020401EC9C0E0C9F582FF0583F404258139
:100B7000F97D2EE7CDF709DFFAD0E0F9EDC0E0808E
:100B800019F404F5827F00058280067430C0E00508
:100B900083D582F7742EC0E00583C164F42402FD7E
:100BA0007F30BD02027F2E858382E9C0E0E581C3EC
:100BB0009583F9E7CFF709D582F9D0E0F9EFC0E0E6
:100BC0007F300583DDDAEDF4142583F582C164D22C
:100BD000F7120CB9BFFF030208E9A2F0B392F43197
:100BE00012700104B4FF027406F5823105BF7C0067
:0E0BF0004014EF248020E705B582005009C3B1
:100BFE009582F414310561533112143105811AD2E4
:100C0E00F7120CB9C2F4BFFF030208E9E9C0E0EF26
:100C1E002481FFC0F0E58314FD0D0583F582F425D4
:100C2E0081F975F02EE7C5F0F709DDF9A9F0D0F0DE
:100C3E00D146AC835010F404F58285F083F109D5CA
:100C4E0082FB8583F0E430F413F582D0E0B43003F8
:100C5E001C80F8C0E0E582BC0202D2F28C8330F236
:100C6E0008C582D0E01583C5827582306007C082C8
:100C7E0014058380F7744530F7027465C0E0EF20E9
:100C8E00E704742B80057F2DF404CFC0E0ADF0EFA8
:100C9E0075F00A842430C0E0E5F02430C0E0E5832E
:100CAE002404F5838DF0758200C19A18E63308E6A8
:100CBE003392D518186039B4FF4CE6C2E76009903C
:100CCE000FAB7D03C2D18014900FAED2D17D033015
:100CDE00D1147F2B30D5027F2D120EFBE4FF93CF64
:100CEE00120EFBA3DDF6E4F5F0F5837FFF18182254
:100CFE0074307F02D082D083C0E0DFFC7F7FC08360
:100D0E00C08275830222CFD083D082EAC0E0C0F0C9
:100D1E00EEC0E0E9C0E0EBC0E0C082C083CFFA7560
:100D2E00F010A4CAABF075F04DA42BFBE435F0FC2B
:100D3E00EA2410FAEB34C5FBEC34D9FCE6C2E7FF2B
:100D4E0075F056A4F42411C5F0F434C58FF0A42A1E
:100D5E00E5F03BE43CFBC0E0EBC0E020E707800899
:100D6E001203C18022F404FBE8C0E01206A6D0E014
:100D7E00F8D0F0E8C0E075820418E608C0E0D5822D
:100D8E00F930F7DC12051DEED2E7CE33EF332482B5
:100D9E00FAECFBD0E0F8D0E0FCE4BA0002800DC320
:100DAE00CB33CBCD33CDCE33CE33DAF37900C58210
:100DBE00D0E0CAD0E0C5827583081C60160C75F0B1
:100DCE000A8460082430C0E00915830CE5F0243055
:100DDE00C0E0098BF0740AA4FBAFF08DF0740AA486
:100DEE002FFDAFF050010F8EF0740AA42FFE743059
:100DFE0035F0C0E009D583DBEC247FFFE9FC04600D
:100E0E0003120F09EF046003120F09ECF58324049B
:100E1E00FEE5819EFED0E0CBC082EEC9E7CBF7099E
:100E2E00C9B581F7DCF41581D0E0F9D0E0FED0F041
:100E3E00D0E0C082CAC0E0223112B4FF0274063183
:100E4E0005C2F2700520F002D2F2A2F572F672D14E
:100E5E0092F0C3958222D1465012F404F582AC83EF
:100E6E00AFF0F109D582FB8FF08C83E4F58230F47C
:100E7E00143112FCD0E0B430051C158380F6C0E0AE
:100E8E00EC7002D2F230F204D0E01583E583FD253A
:100E9E0082FF310FC330F001D39F5001E4F583C0C0
:100EAE008230F30575820A711820F102D1EA75823B
:100EBE000A7118D082E8C0E0EDFC14F42581F8E642
:100ECE0008FFD1FBDCF9D2F3C083858283D1EAD04F
:100EDE0083D0E0F8D0E0DDFC181801E9E583600C62
:100EEE007F2030F3027F30D1FBD583F4223121BB3A
:100EFE00FF041201E522EF12005622D0E0FDD0E0F1
:100F0E00D0F0C0E0EDC0E0E9C0E0E58124FEF9ECF0
:100F1E00FD1CE5F0B436005004D0E0F9221DED6062
:100F2E001319E7B42E0280F504B43A057430F78035
:100F3E00ECF780E5EC2404F5F07D31E7CDF709D52B
:100F4E00F0F90CF9221830F402181822286E756C7C
:100F5E006C290049584450436C106200680023010C
:100F6E002D022B2020402E80002A09306F0A19787E
:100F7E000994580996730AAE750A75640A83690A4C
:100F8E00836309686E0940250984700988660B46DB
:100F9E00650C0D450C0F670BCF470BD1004E614E04
:030FAE00494E4663
:100FB10075F004EF23D5F0FC540F4410F5B0E4F5BF
:100FC100B0EF540F4410F5B0E4F5B0FE7FC802074E
:010FD100D14E
:100FD20075B01375B003E4FE7FC81207D175B01364
:100FE20075B0031207D175B01375B0031207D1752E
:100FF200B01275B0021207D17F28120FB17F0C1206
:071002000FB17F06020FB1E0
:1010090075F004EF23D5F0FC540F4490F5B05480EB
:10101900F5B0EF540F4490F5B05480F5B07E007FE1
:04102900C80207D121
:0B102D008B258A2689278D28BD010530
:0A103800E4FF1207F0E528B40205FA
:0A1042007F401207F0E528B4030513
:0A104C007F101207F0E528B4040538
:101056007F501207F0AB25AA26A927120027601E8B
:10106600AB25AA26A9270527E52770020526120023
:0F10760027FF121009E4FE7FC81207D180D7228E
:10108500C0E0C0D0051EE51E7002051DD0D0D0E021
:011095003228
:10109600476573636877696E6469676B6569743AF7
:1010A600002566206B6D2F68004D657373756E673E
:0B10B600206C61657566742E2E2E0004
:1010C100C0E0C0F0C083C082C0D0C000C001C00277
:1010D100C003C004C005C006C007C28C051F758CC3
:1010E1003C758AB075F014E524A4FBE4B5F00280E8
:0E10F100030211DDE51FB5030280030211DDCD
:1010FF00E4F51FAE1DAF1EFCAD24120101E4FCFD93
:10110F00120727C004C005C006C0077C1E7D1B7ECA
:10111F00D17F3E1203C1C004C005C006C00774666C
:10112F00FEFCFD7F401203C18C208D218E228F2368
:10113F00E4FDFCF51DF51EC020C021C022C0237E9A
:10114F007A7F441203C1C004C005C006C007E4FC87
:10115F00FD7EA07F4012026A12072BEE33E450018E
:10116F0014FDFC1206E98C208D218E228F23C020C6
:10117F00C021C022C0237C6F7D127E837F3A120371
:10118F00C18C208D218E228F231200067B017909BD
:10119F00E4FA7D057C1078961208087B017909E442
:1011AF00FA7D0112102DC020C021C022C0237B0167
:1011BF007909E4FA7D057C1078A712080874FC25DC
:1011CF0081F5817B017909E4FA7D0212102DD28C11
:1011DF00D007D006D005D004D003D002D001D00064
:0B11EF00D0D0D082D083D0F0D0E0320E
:1011FA00D2AFD2A8D2A9D28875E40C758901758CB0
:07120A003C758AB0D28C2272
:101211001207B8120FD21200061211FA7B017909D6
:10122100E4FA7D057C1078961208087B017909E4BF
:10123100FA7D0112102D7B017909E4FA7D057C10FC
:1012410078AF1208087B017909E4FA7D0212102DAA
:0212510080FE1D
:00000001FF
