:03000000020003F8
:0F000300758157E4787FF6D8FD75A0FF02039250
:1000120075B28375D90075A4FF75A5FF75A6FF7526
:09002200A7FF75AEFF75E2402254
:0F002B007F211202F3E4FF1202F37F7F0202F340
:03003B0002017F40
:10003E00CD30E11520E00FC083C08288828C83CD45
:0C004E00F0D082D08322CDF222CDF62229
:10005A00ED30E11320E00EC083C08288828C83E0F9
:10006A00D082D08322E2226405700EC083C08288C7
:0B007A00828C8393D082D08322E62288
:10008500EB30E11320E00EC083C08289828A83E0D1
:10009500D082D08322E3226405700EC083C082899A
:0B00A500828A8393D082D08322E7225E
:1000B000058105810581EBC0E0EAC0E0E9C0E0ED23
:1000C000C0E0ECC0E0E8C0E074FA2581F81818EB55
:1000D000F608EAF608E9F674F42581F9B70005098F
:1000E000B70001D3404D74FE2581F8E6FB08E6FA1F
:1000F00008E6F9120085603B74FE2581F9E7FD09E9
:10010000E7FC09E7F807E71970010712005AFA74CB
:10011000FB2581F9E7FD09E7FC09E7F807E7197016
:100120000107EA12003E74F52581F9E7171970A757
:100130001780A474F42581F9E7FA09E7171970010B
:1001400017BA0004B40001D3401974FB2581F9E704
:10015000FD09E7FC09E7F807E719700107E4120059
:100160003E80D074F82581F9E7C0E009E7C0E009D6
:0F017000E7F9D0E0FAD0E0FB74F72581F58122A2
:10017F00C0E0C0F0C0D0C000C001C002C003E5C0E5
:10018F0054F02480604E24C0601624E06002806C1E
:10019F008535C2C2C0C292C2C5E4F539F53A805C5A
:0E01AF00E539B53706E53A6538600320C11121
:0301BD0030010608
:1001C000C200C2C08045D2C4C2C0C200803DE53A70
:1001D0002421F886C2C2C0D292053AE53A702C05B5
:0601E00039802830C32520
:1001E600E53A2421F8A6C2053AE53A70020539E552
:0901F60039B5370DE53AB53808BA
:1001FF00C2C1D2C4C2008004D2C1D292D003D002F5
:0B020F00D001D000D0D0D0F0D0E03201
:10021A0075D4FF75E10475E24075E601D2AF7589C0
:0D022A0020758DFB758BFBD28E75C1912266
:100237008B168A178918D200EFC333F53575370047
:10024700851538C037C0387B017921E4FAAD16AC83
:1002570017A8181200B015811581D2C53000048087
:04026700FB80F922FD
:10026B008D118B128A138914D200EFC33304F53529
:10027B00753700851138D2C530000480FB80F975C5
:0A028B003600E536B51101D3401A24
:10029500E5362421F8E6FEE5142536F8E43513ADF8
:0B02A50012FCEE12003E053680DE2247
:1002B0008F0D8B0E8A0F8910D200E50DC333F535F3
:1002C000753700850838C037C0387B017921E4FADA
:1002D000AD0EAC0FA8101200B015811581D2C5303B
:1002E000000480FB80F9AF0DAD09AB0AAA0BA90C85
:0302F00002026B9C
:1002F300753B808F3C7515027F3C7B01E4FA793BAB
:03030300020237BC
:100306007FAE1202F37FD51202F37F801202F37FD3
:10031600A81202F37F3F1202F37FD31202F3E4FF27
:100326001202F37F401202F37F8D1202F37F141242
:1003360002F37F201202F3E4FF1202F37FA11202FE
:10034600F37FC81202F37FDA1202F37F121202F36E
:100356007F811202F37FCF1202F37FD91202F37F5D
:10036600F11202F37FDB1202F37F401202F37FA445
:0D0376001202F37FA61202F37FAF0202F322
:0F0383007F221202F3E4FF1202F37F070202F35C
:0603920012001212021A13
:1003980030A00480FB80F9753BF2753C01753DF493
:1003A800753EAA7515047F767B01E4FA793B120243
:1003B80037750801750908750A01E4FAF50B750C1B
:1003C8004F7F767B01793B1202B020A0C380FB806F
:0103D800F92B
:00000001FF
